:100000000C94E2020C940A030C940A030C940A0365
:100010000C940A030C940A030C940A030C940A032C
:100020000C940A030C940A030C940A030C940A031C
:100030000C940A030C940A030C940A030C940A030C
:100040000C94420F0C940A030C94B20F0C948C0F76
:100050000C940A030C940A030C940A030C940A03EC
:100060000C94E40F0C940A0300000000003E5B4F68
:100070005B3E3E6B4F6B3E1C3E7C3E1C183C7E3C08
:10008000181C577D571C1C5E7F5E1C00183C180016
:10009000FFE7C3E7FF0018241800FFE7DBE7FF30A6
:1000A000483A060E2629792926407F050507407F14
:1000B00005253F5A3CE73C5A7F3E1C1C08081C1C87
:1000C0003E7F14227F22145F5F005F5F06097F017D
:1000D0007F006689956A606060606094A2FFA29468
:1000E00008047E040810207E201008082A1C080836
:1000F0001C2A08081E101010100C1E0C1E0C303884
:100100003E3830060E3E0E06000000000000005F84
:1001100000000007000700147F147F14242A7F2AA0
:100120001223130864623649562050000807030062
:10013000001C2241000041221C002A1C7F1C2A08AE
:10014000083E080800807030000808080808000011
:1001500060600020100804023E5149453E00427F85
:10016000400072494949462141494D331814127FD4
:100170001027454545393C4A494931412111090774
:100180003649494936464949291E000014000000F5
:1001900040340000000814224114141414140041C7
:1001A00022140802015909063E415D594E7C121184
:1001B000127C7F494949363E414141227F414141BC
:1001C0003E7F494949417F090909013E4141517337
:1001D0007F0808087F00417F41002040413F017FA8
:1001E000081422417F404040407F021C027F7F0470
:1001F00008107F3E4141413E7F090909063E4151B9
:10020000215E7F09192946264949493203017F01A8
:10021000033F4040403F1F2040201F3F4038403FA9
:10022000631408146303047804036159494D4300BF
:100230007F4141410204081020004141417F0402F6
:10024000010204404040404000030708002054548D
:1002500078407F284444383844444428384444286B
:100260007F385454541800087E090218A4A49C78BE
:100270007F0804047800447D40002040403D007F1A
:100280001028440000417F40007C047804787C08FA
:100290000404783844444438FC18242418182424CE
:1002A00018FC7C08040408485454542404043F44B3
:1002B000243C4040207C1C2040201C3C4030403CE2
:1002C00044281028444C9090907C4464544C440042
:1002D00008364100000077000000413608000201A6
:1002E0000204023C2623263C1EA1A161123A404092
:1002F000207A38545455592155557941225454780F
:1003000042215554784020545579400C1E527212A7
:100310003955555559395454545939555454580030
:1003200000457C410002457D420001457C407D1234
:1003300011127DF0282528F07C5455450020545496
:100340007C547C0A097F4932494949323A44444441
:100350003A324A4848303A4141217A3A424020787C
:10036000009DA0A07D3D4242423D3D4040403D3C7D
:1003700024FF2424487E4943662B2FFC2F2BFF09A2
:1003800029F620C0887E0903205454794100004496
:100390007D413048484A32384040227A007A0A0A81
:1003A000727D0D19317D2629292F282629292926F4
:1003B00030484D4020380808080808080808382F39
:1003C00010C8ACBA2F102834FA00007B00000814C3
:1003D0002A142222142A14085500550055AA55AA99
:1003E00055AAFF55FF55FF000000FF00101010FF39
:1003F00000141414FF001010FF00FF1010F010F094
:10040000141414FC001414F700FF0000FF00FF1484
:1004100014F404FC141417101F10101F101F1414D0
:10042000141F00101010F0000000001F101010101A
:100430001F10101010F010000000FF10101010100E
:1004400010101010FF10000000FF140000FF00FF4C
:1004500000001F10170000FC04F4141417101714E8
:1004600014F404F40000FF00F7141414141414140A
:10047000F700F7141414171410101F101F1414147D
:10048000F4141010F010F000001F101F0000001FE7
:1004900014000000FC140000F010F01010FF10FF1A
:1004A000141414FF141010101F00000000F010FFAF
:1004B000FFFFFFFFF0F0F0F0F0FFFFFF0000000093
:1004C00000FFFF0F0F0F0F0F3844443844FC4A4A17
:1004D0004A347E02020606027E027E0263554941CC
:1004E000633844443C04407E201E2006027E020203
:1004F00099A5E7A5991C2A492A1C4C7201724C3017
:100500004A4D4D303048784830BC625A463D3E49ED
:100510004949007E0101017E2A2A2A2A2A44445F91
:10052000444440514A444040444A51400000FF0185
:1005300003E080FF000008086B6B08361236243693
:10054000060F090F060000181800000010100030F8
:1005500040FF0101001F01011E00191D1712003C80
:100560003C3C3C000000000000000000240027008C
:100570002A00000000080002010000030407000038
:1005800000000000000000000000230026002900F9
:10059000010204081020408001020408102001021A
:1005A0000408102000000000250028002B0004048F
:1005B000040404040404020202020202030303030B
:1005C0000303FF1011241FBECFEFD8E0DEBFCDBF65
:1005D00013E0A0E0B1E0E8E0F4E302C005900D9282
:1005E000A436B107D9F724E0A4E6B3E001C01D9218
:1005F000A73CB207E1F712E0C2EED2E004C02197B7
:10060000FE010E94D218C13ED107C9F70E94CA114B
:100610000C94021A0C940000FC0120812EBD0DB434
:1006200007FEFDCF2EB5FC0120830895833081F0B5
:1006300028F4813099F08230A9F008958730A9F02C
:100640008830C9F08430B1F4809180008F7D03C080
:10065000809180008F7780938000089584B58F7794
:1006600084BD089584B58F7DFBCF8091B0008F77D6
:100670008093B00008958091B0008F7DF9CF1F93D3
:10068000CF93DF93282F30E0F901EE58FA4F849191
:10069000F901E057FA4FD491F901E255FA4FC491AC
:1006A000CC23A9F0162F81110E941603EC2FF0E045
:1006B000EE0FFF1FEC55FA4FA591B4918FB7F89448
:1006C000EC91111108C0D095DE23DC938FBFDF9130
:1006D000CF911F910895DE2BF8CFCF93DF9390E059
:1006E000FC01E057FA4F249182559A4FFC01849106
:1006F0008823D1F090E0880F991FFC01E859FA4F48
:10070000A591B491FC01EC55FA4FC591D4916111BA
:100710000EC09FB7F8948C91E22FE0958E238C93B6
:100720002881E223E8839FBFDF91CF9108958FB79F
:10073000F894EC91E22BEC938FBFF6CF8E5080644F
:1007400080937C0080917A00806480937A0080910D
:100750007A0086FDFCCF8091780090917900089511
:100760008230910538F0880F991F880F991F0597DF
:100770000197F1F708959F92AF92BF92CF92DF92C7
:10078000EF92FF920F931F93CF93DF93EC016B01D6
:100790008885998511E0892B09F010E8F601A08081
:1007A0008A2D8123992493948111912C2C813D8150
:1007B0004E815F8160E271EA87E090E00E949C18C0
:1007C000022FB12CE22EF12C002319F0C7010E9458
:1007D000B0038A85877F09F04FC08D858F3F89F0F0
:1007E0009A2D912381E009F480E0891551F0EF857D
:1007F000F8898F899923D1F19081892B808399245D
:100800009394E989FA898081998D892B80830023CB
:1008100019F0C7010E94B0038E858F3F39F0EB8934
:10082000FC898081988D892309F0B12AE989FA89A8
:100830009081898D8095892380838E858F3F11F0EB
:10084000F601B08288859985892B09F044C0110F83
:100850001111BACFDF91CF911F910F91FF90EF90BF
:10086000DF90CF90BF90AF909F900895908180953A
:1008700089238083912CC5CFE989FA898081998D5C
:10088000892B8083002319F0C7010E94B0038D8556
:100890008F3F49F0EF85F8898F899A2D9123B9F020
:1008A0009081892B8083E989FA899081898D80954F
:1008B000892380838E858F3F09F4BFCFEB89FC8924
:1008C0008081988D892309F4B8CFB12AB6CF908161
:1008D00080958923E7CF1695BBCFAF92BF92CF9279
:1008E000DF92EF92FF920F931F93CF93DF931F92AC
:1008F000CDB7DEB78C015B016A01DC018D919C9163
:100900001197892B39F01296ED91FC91908181819C
:100910009CBD8DBDF80183858F3F19F060E00E947A
:100920003F037501CA0CDB1CCE14DF04A9F0D7010C
:100930008D917D018983F80180819181892B29F036
:10094000CE0101960E940C03EFCFBE016F5F7F4F77
:10095000C8010E94BB03E8CFD8011B968C918F3F42
:1009600019F061E00E943F0381E00F90DF91CF9189
:100970001F910F91FF90EF90DF90CF90BF90AF90BD
:1009800008953FB7F8948091FB039091FC03A091E8
:10099000FD03B091FE0326B5A89B05C02F3F19F0BB
:1009A0000196A11DB11D3FBFBA2FA92F982F8827EF
:1009B000BC01CD01620F711D811D911D42E0660FCA
:1009C000771F881F991F4A95D1F708958F929F929C
:1009D000AF92BF92CF92DF92EF92FF924B015C01F8
:1009E0000E94C1046B017C0189288A288B2859F058
:1009F0000E94C1046C197D098E099F09683E7340ED
:100A000081059105A8F3FF90EF90DF90CF90BF9004
:100A1000AF909F908F900895AF92BF92CF92DF9248
:100A2000EF92FF920F931F93CF93DF936C017B01A3
:100A30008B01040F151FEB015E01AE18BF08C01734
:100A4000D10759F06991D601ED91FC910190F081A7
:100A5000E02DC6010995892B79F7C501DF91CF916A
:100A60001F910F91FF90EF90DF90CF90BF90AF90CC
:100A70000895FC01538D448D252F30E0842F90E0A4
:100A8000821B930B541710F0CF9608950197089589
:100A9000FC01918D828D981761F0A28DAE0FBF2F52
:100AA000B11D5D968C91928D9F5F9F73928F90E0A8
:100AB00008958FEF9FEF0895FC01918D828D981717
:100AC00031F0828DE80FF11D858D90E008958FEF54
:100AD0009FEF0895FC01918D228D892F90E0805C1D
:100AE0009F4F821B91098F73992708958FEF93E091
:100AF0000E946A0521E0892B09F420E0822F0895E5
:100B000080E090E0892B29F00E94760581110C94F9
:100B100000000895FC01A48DA80FB92FB11DA35AA0
:100B2000BF4F2C91848D90E001968F739927848F0D
:100B3000A689B7892C93A089B1898C918370806430
:100B40008C93938D848D981306C00288F389E02DD1
:100B500080818F7D80830895EF92FF920F931F9382
:100B6000CF93DF93EC0181E0888F9B8D8C8D981360
:100B70001AC0E889F989808185FF15C09FB7F8946C
:100B8000EE89FF896083E889F989808183708064B8
:100B900080839FBF81E090E0DF91CF911F910F9103
:100BA000FF90EF900895F62E0B8D10E00F5F1F4F12
:100BB0000F731127E02E8C8D8E110CC00FB607FC21
:100BC000FACFE889F989808185FFF5CFCE010E94AF
:100BD0008A05F1CFEB8DEC0FFD2FF11DE35AFF4F8E
:100BE000F0829FB7F8940B8FEA89FB89808180623D
:100BF000CFCFCF93DF93EC01888D8823B9F0AA89FA
:100C0000BB89E889F9898C9185FD03C0808186FDC7
:100C10000DC00FB607FCF7CF8C9185FFF2CF808116
:100C200085FFEDCFCE010E948A05E9CFDF91CF91FC
:100C3000089520918B03260F3327331F213231056E
:100C4000ECF42091AF03FC0190E080E0243069F0E7
:100C500082E00895A0918B032191AC0145595C4F2E
:100C6000A40FB52FB11D2C930196861798F3809190
:100C70008B03680F60938B0380E0089581E00895F3
:100C800008958FEF9FEF08958FEF9FEF0895809164
:100C9000640390E09195819591090895CF93DF9336
:100CA000CB01EA01642F0E941906CE01DF91CF919A
:100CB0000895CF93DF931F92CDB7DEB7698361E0CC
:100CC000CE0101960E94190681E090E00F90DF911D
:100CD000CF9108950895FC016370668B848195819E
:100CE00026813781613039F0633029F09187808720
:100CF00033872287089531872087938782870895D5
:100D00002F923F924F925F926F927F928F929F921B
:100D1000AF92BF92CF92DF92EF92FF920F931F9309
:100D2000CF93DF93CDB7DEB76A970FB6F894DEBFE7
:100D30000FBECDBF9A8F898F7A8369834A01D22EE5
:100D400018870F833701BC2CDC0159962D913C91FB
:100D50005A972115310509F015C118968D919C916E
:100D60001997681779070CF0D7C11A968D919C9145
:100D7000481759070CF0D0C14C2C512CB6E0CB9E33
:100D8000600D711D11247C876B87161617060CF0F9
:100D9000C3C1EA2DF0E0FA87E98793E0EE0FFF1F69
:100DA0009A95E1F7F88BEF87CF01840F951F1816FE
:100DB00019060CF0B1C1A98DBA8D58968C9181118C
:100DC00004C0BFEABD1508F4D394A98DBA8DED9186
:100DD000FC9111970284F385E02DCD010995B5E0D2
:100DE000DB9EC0011124E981FA81FC83EB83312C65
:100DF000212C9C0128593F4F388F2F8B4A2D50E0D2
:100E00005E8B4D8BEF89F88DE20DF31D44919E8230
:100E10008D82D12CC12C69817A81620D731D7A8BF0
:100E2000698B842F90E09C8B8B8BE98DFA8DA08150
:100E3000B18140FF82C0F1E0BF126FC0AF126DC040
:100E40001C96ED91FC912F813885A4014C0D5D1D00
:100E500069897A89898D9A8D0995EB89FC89F5953F
:100E6000E7954E2F5FEFC51AD50A6D817E818D897A
:100E70009E89680F791F7E836D8398E0C916D1041F
:100E800081F6AFEF2A1A3A0AEB81FC81E40DF51DD9
:100E9000FC83EB83F5E02F16310409F0B3CF2F81EB
:100EA000388526153705B9F0A98DBA8DED91FC91DD
:100EB000B1E0BB1257C0AB1255C069817A816B5F3C
:100EC0007F4F0088F189E02D830128E030E0A40104
:100ED000898D9A8D0995A98DBA8DED91FC91119707
:100EE0000688F789E02DCD016A960FB6F894DEBF2B
:100EF0000FBECDBFDF91CF911F910F91FF90EF906B
:100F0000DF90CF90BF90AF909F908F907F906F9029
:100F10005F904F903F902F9009941E96ED91FC9119
:100F2000EF80F88409851A8592014D815E816B817D
:100F30007C81898D9A8D099590CF2F8138852615D2
:100F4000370509F48ACF31E0B31207C0A31205C0F8
:100F50001C96ED91FC91930178CF1E96ED91FC913A
:100F60007301E0CF6B857C85641975090684F7856C
:100F7000E02D73010F8518899201A401898D9A8D46
:100F80000995A9CFF90134969491329745915491DE
:100F9000D91AB7E0DB9E400D511D1124F9012591AE
:100FA00034913C8B2B8BFA0125903490FA013296C8
:100FB000749031963491398B329664903196449086
:100FC00041E04C1518F04A1508F07FC0662D062C3C
:100FD000000C770B7C836B83842D042C000C990B05
:100FE0009E838D83A98DBA8DED91FC91119702841A
:100FF000F385E02DCD010995512CD12CC12CEA2D82
:10100000F0E0FA87E9872B2D30E03C872B87A4019D
:10101000440D511D47FC5A95588F4F8B69817A8139
:10102000660D711D67FC7A957E876D877989C71675
:1010300008F051CF2C2D30E04D815E81420F531FBF
:10104000A985BA854A9FC0014B9F900D5A9F900D6C
:101050001124FC01E80DF91DF88BEF87852D612C1B
:101060004F89588D420F531F5E8B4D8B671408F0CC
:1010700050C044244394480E877041F4C101019646
:10108000EB89FC89E20DF31DD4901C01D7FE19C039
:10109000A98DBA8DED91FC91662D70E0B1E0BB1287
:1010A00019C0AB1217C02D853E85620F731F0484D3
:1010B000F585E02D2F8138854D895E89898D9A8D42
:1010C0000995DD0C6394842DD1CF1E821D821C8274
:1010D0001B8288CF4B815C81640F751FAB85BC85FB
:1010E0006A9FC0016B9F900D7A9F900D11246981BA
:1010F0007A81680F791F0684F785E02DEF80F884E8
:1011000009851A859D014F855889898D9A8D099584
:10111000D8CF570CC3948ACF6A960FB6F894DEBF27
:101120000FBECDBFDF91CF911F910F91FF90EF9038
:10113000DF90CF90BF90AF909F908F907F906F90F7
:101140005F904F903F902F9008958F929F92AF9213
:10115000CF92EF92FF920F931F93CF93DF93EC0107
:10116000262F898D9A8D009709F051C06A30D1F4ED
:101170001D861C868D8948E0849F900111248E85F0
:101180009F85820F931F9F878E8781E090E0DF917C
:10119000CF911F910F91FF90EF90CF90AF909F90C4
:1011A0008F9008956D3089F3CC88AD888F8988231E
:1011B000C1F08C859D8536E0C39E800D911D112464
:1011C000488559854817590764F44E855F851D8603
:1011D0001C8638E0A39EC0011124840F951F9F87B1
:1011E0008E87EA88FB88088919894E855F856C851A
:1011F0007D85CE010E9480062C898C859D8546E0E8
:10120000249F800D911D11249D878C87BECF6A304D
:1012100069F41D861C86FC013896E4912D898E8523
:101220009F85E29F800D911D1124ADCF6D3009F493
:10123000ACCFFC0134963491631708F4A6CF3296F4
:10124000E491E61708F4A1CFFC01329685909490C2
:10125000462F431B342F47E0349F800C911C1124F0
:10126000F401329634913196E4913323A9F1EE23BF
:1012700099F1CC88F4013596E491AD884F894423E7
:1012800001F10E2E000CFF0BE30FF11DCE9EA0010D
:10129000CF9E500D11246C857D85460F571F6885A4
:1012A0007985641775076CF44E855F851D861C86ED
:1012B000FC013896E491AE9E400D511D11245F87CC
:1012C0004E87EA88FB88088919894E855F856C8579
:1012D0007D85CE010E948006F4013496E4912C892C
:1012E0008C859D85E29F800D911D11248DCF6F927D
:1012F0007F928F929F92AF92BF92CF92DF92EF92A6
:10130000FF920F931F93CF93DF93EC016B015A0170
:1013100039014801E881F9810284F385E02D0995BE
:10132000E881F9810288F389E02D87019301A50105
:10133000B601CE010995A501480D591D415051092D
:10134000E881F9810288F389E02D9301B601CE018D
:101350000995E881F9810088F189E02D9401A501C2
:10136000B601CE010995C60CD71CB60161507109B2
:10137000E881F9810088F189E02D9401A501CE0171
:101380000995E881F9810688F789E02DCE01DF9182
:10139000CF911F910F91FF90EF90DF90CF90BF9072
:1013A000AF909F908F907F906F9009946F927F92F3
:1013B0008F929F92AF92BF92CF92DF92EF92FF9265
:1013C0000F931F93CF93DF935C01EB016A014901F7
:1013D00038018701DC01ED91FC916217730719F563
:1013E000641675062CF0962D872D3A01C92ED82E3D
:1013F0009601261937092F5F3F4F048CF58DE02D9C
:10140000A301BE01C5010995DF91CF911F910F91F5
:10141000FF90EF90DF90CF90BF90AF909F908F9014
:101420007F906F9008954615570591F4261737075A
:1014300024F0892D4B01C22FD82F9E01281939097C
:101440002F5F3F4F068CF78DE02DA601B401DACF58
:101450000284F385E02D0995D501ED91FC91048876
:10146000F589E02D83019401A601BE01C50109950E
:10147000D501ED91FC910688F789E02DC501DF913A
:10148000CF911F910F91FF90EF90DF90CF90BF9081
:10149000AF909F908F907F906F900994EF92FF9202
:1014A0000F931F93DC011A960D911C911B971896B0
:1014B0002D913C911997ED91FC9100A0F1A1E02DA7
:1014C0007B0150E040E070E060E009951F910F91D2
:1014D000FF90EF9008954F925F926F927F928F925C
:1014E0009F92AF92BF92CF92DF92EF92FF920F93B3
:1014F0001F93CF93DF936C012B015A0139014801EF
:10150000DC01ED91FC910284F385E02D0995E20167
:10151000640C751CD601ED91FC91C615D7055CF4E1
:101520000088F189E02D87019401A501BE01C60163
:1015300009952196EFCF0688F789E02DC601DF9146
:10154000CF911F910F91FF90EF90DF90CF90BF90C0
:10155000AF909F908F907F906F905F904F90099485
:101560008F929F92AF92BF92CF92DF92EF92FF92B3
:101570000F931F93CF93DF93EC015B014A01690145
:10158000E881F9810284F385E02D099595012C0D00
:101590003D1D21503109E881F9810488F589E02D4C
:1015A00078018401A401B501CE010995E881F98192
:1015B0000688F789E02DCE01DF91CF911F910F9121
:1015C000FF90EF90DF90CF90BF90AF909F908F9063
:1015D00009948F929F92AF92BF92CF92DF92EF9237
:1015E000FF920F931F93CF93DF93EC015B014A01AE
:1015F00069017801E881F9810284F385E02D09957C
:10160000C80CD91C860101501109E881F9810488B0
:10161000F589E02D9501A401B501CE010995E88178
:10162000F9810688F789E02DCE01DF91CF911F91D6
:101630000F91FF90EF90DF90CF90BF90AF909F9071
:101640008F900994EF92FF920F931F93DC01ED911D
:10165000FC9100A0F1A1E02D09951F910F91FF9041
:10166000EF9008950F931F93DC01ED91FC91068C90
:10167000F78DE02D09951F910F9108950F931F93FA
:10168000DC01ED91FC91048CF58DE02D09951F9105
:101690000F910895DC01ED91FC910084F185E02D1E
:1016A00009942F923F924F925F926F927F928F9206
:1016B0009F92AF92BF92CF92DF92EF92FF920F93E1
:1016C0001F93CF93DF9300D000D000D0CDB7DEB70B
:1016D0003C016A013E832D83FC82EB825801A41AEF
:1016E000B50AB7FE03C0B194A194B1088D809E8065
:1016F000861A970A97FE03C09194819491088A14E0
:101700009B045CF0902F812F0D811E819D838E8321
:101710009C2D8D2D6B01692F782F0C151D055CF00C
:101720009D818E817E836D83692F782F902F812FED
:101730008601C92ED82E1601201A310A2B012D81BF
:101740003E81421A530A57FE03C0519441945108F6
:10175000710137FE03C03FEFE31AF30AF594E794F3
:101760008D819E81861797075CF5A1E0B0E0BA8372
:10177000A983C016D1064CF1D301ED91FC910484EC
:10178000F585E02D2B813C81A8016D817E818A1435
:101790009B041CF04D815E81B801C3010995E418DA
:1017A000F508F7FE0AC02D813E8189819A81280FB4
:1017B000391F3E832D83E20CF31C0F5F1F4FD9CFDF
:1017C0002FEF3FEF3A832983D4CF26960FB6F894B4
:1017D000DEBF0FBECDBFDF91CF911F910F91FF9064
:1017E000EF90DF90CF90BF90AF909F908F907F90C1
:1017F0006F905F904F903F902F9008950F931F939D
:10180000CF93DF931F92CDB7DEB78C01698360E081
:10181000FC01868D0E943F0341E050E0BE016F5FF6
:101820007F4FF801838D948D0E946D040F90DF919E
:10183000CF911F910F910895CF93C82F87FDCFE7C8
:10184000C093BB0461E28CE994E00E94FE0B6C2F14
:1018500060688CE994E00E94FE0B60E28CE994E001
:10186000CF910C94FE0BCF938091B90487FD13C0E8
:1018700061E00E946D0360E08091B9040E943F0323
:1018800061E070E080E090E00E94E60461E0809119
:10189000B9040E943F03C091BC04C83008F0C7E0FF
:1018A000C093BC0461E28CE994E00E94FE0B6C2FB3
:1018B00060618CE994E00E94FE0B60E28CE994E0A8
:1018C0000E94FE0B8091BB040E941C0C60E28CE91C
:1018D00094E00E94FE0B6CE08CE994E0CF910C94B4
:1018E000FE0BFF920F931F93CF93DF939091BD0454
:1018F000992339F08091BE048F5F8917E8F58093B2
:10190000BE04D091C104D695D695D69584E5D89FCE
:10191000800111248091C2048695869586958D1745
:1019200080F16D2F60648CE994E00E94FE0BC09101
:10193000BF04F090C0046C2F60688CE994E00E94B2
:10194000FE0B61E08091BA040E943F034F2D50E0EE
:101950006C2F70E0461B570B4F5F5F4F600F711F7E
:1019600060507F4F8091B7049091B8040E946D043D
:10197000DF5F0C5A1F4FCECF1092BE040E94330C73
:10198000C0CF60E48CE994E00E94FE0B83E5809375
:10199000BF041092C0048FE28093C1041092C2046D
:1019A000DF91CF911F910F91FF9008951F93CF93D7
:1019B000DF93EC01162F60E20E94FE0B6CE0111128
:1019C0006DE0CE01DF91CF911F910C94FE0BFC01D5
:1019D00077FD55C080859185681779070CF04FC059
:1019E00057FD4DC082859385481759070CF047C0B5
:1019F0008689823009F444C0833009F44EC08130B6
:101A000031F48FE290E0861B970BBA01AC01842F72
:101A1000A62F93A1691708F4962F93A394A19A1760
:101A200008F49A2F94A395A1891708F4982F95A3E9
:101A300096A1981708F4982F96A3CA0157FD079608
:101A4000E3E095958795EA95E1F7A4E5A89FF00175
:101A5000A99FF00D1124E60FF71FE050FF4FCA01B8
:101A600068E070E00E94881841E050E001C0440F37
:101A70008A95EAF78081232BB9F0842B808308951F
:101A800083E590E0DC01A61BB70BBD018FE290E07F
:101A9000DC01A41BB50BAD01BACF83E590E0841B3C
:101AA000950BAB01BC01B3CF40958423E7CF0895DC
:101AB00090E080E00895E0E0F1E088EF91E0DF0160
:101AC0009C011D9221503040E1F71092BF0480919B
:101AD000C004833508F483E58093C0041092C104E8
:101AE0008091C2048F3208F48FE28093C204109276
:101AF000A9041092A8041092AB041092AA040895AD
:101B00000E94FD19FB0101900020E9F73197AF0118
:101B1000461B570BDC01ED91FC910280F381E02D17
:101B200009948F929F92AF92BF92EF92FF920F9380
:101B30001F93CF93DF93CDB7DEB7A1970FB6F8947D
:101B4000DEBF0FBECDBF7C01FA01CB0119A222304E
:101B500008F42AE08E010F5D1F4F822E912CB12CCC
:101B6000A12CBF01A50194010E949C18F901CA0192
:101B70006A300CF5605DD8016E938D01232B242B08
:101B8000252B79F790E080E0109721F0BD01C70187
:101B90000E94820DA1960FB6F894DEBF0FBECDBF96
:101BA000DF91CF911F910F91FF90EF90BF90AF9079
:101BB0009F908F900895695CDECF0C94820D2F92D8
:101BC0003F924F925F926F927F928F929F92AF92CD
:101BD000BF92CF92DF92EF92FF921F93CF93DF934A
:101BE000EC016A017B01722EAB019601CB01B601BB
:101BF0000E946E186CE373E0811126C04601570104
:101C0000E894B7F82FEF3FEF4FE75FE7C501B40166
:101C10000E946E1881110CC02FEF3FEF4FE75FE776
:101C2000C501B4010E945E1660E473E0181664F00A
:101C30002FEF3FEF4FE75FE4C701B6010E94B617F1
:101C40001816B4F464E473E0CE01DF91CF911F91D4
:101C5000FF90EF90DF90CF90BF90AF909F908F90CC
:101C60007F906F905F904F903F902F900C94820DDB
:101C70002FEF3FEF4FE75FECC701B6010E945E1602
:101C800087FDE0CF20E030E0A901C701B6010E9446
:101C90005E16312C212C87FF0DC0E881F98101905F
:101CA000F081E02D6DE2CE0109951C01F7FAF09468
:101CB000F7F8F09410E060E070E080E09FE37116C8
:101CC00041F020E030E040E251E40E9463161F5FE3
:101CD000F6CFA70196010E94F2152B013C010E944C
:101CE000D5164B015C012AE0BC01A401CE010E9483
:101CF000910D7C01E20CF31C1123E1F1C501B4014B
:101D00000E9404179B01AC01C301B2010E94F115AE
:101D10004B015C01E881F9810190F081E02D6EE2D8
:101D2000CE010995E80EF91E115020F120E030E0B7
:101D300040E251E4C501B4010E94BB172B013C01F4
:101D40000E94D5164B01B12CA12C2AE0B501A401AB
:101D5000CE010E94910DE80EF91EC501B4010E944A
:101D600004179B01AC01C301B2010E94F1154B01A4
:101D70005C01DACFC701DF91CF911F91FF90EF9007
:101D8000DF90CF90BF90AF909F908F907F906F909B
:101D90005F904F903F902F9008951F93CF93DF93C4
:101DA00085ED8093BC008091670390916803A091BA
:101DB0006903B0916A030796A11DB11D23E0B69592
:101DC000A795979587952A95D1F72091BC0024FD7A
:101DD00003C01092AF0352C0409167035091680353
:101DE0006091690370916A03452B462B472B69F379
:101DF0000097A105B10541F02AE22A95F1F700C04C
:101E00000197A109B109E1CF80916603C1E0C093B8
:101E10006503882399F1D091B8001091BA008091A0
:101E2000BC008A7B8093BC0060E082E10E943F039B
:101E300060E083E10E943F031092AF03C093B103BF
:101E40001092B00361E082E10E943F0361E083E110
:101E50000E943F038091B9008E7F8093B9008091EA
:101E6000B9008D7F8093B90088E48093B80085E441
:101E70008093BC001093BA00D093B800DF91CF914B
:101E80001F9108951F920F920FB60F9211242F9356
:101E90003F938F939F93AF93BF938091F70390915C
:101EA000F803A091F903B091FA033091F60323E00F
:101EB000230F2D3758F50196A11DB11D2093F60370
:101EC0008093F7039093F803A093F903B093FA0378
:101ED0008091FB039091FC03A091FD03B091FE0360
:101EE0000196A11DB11D8093FB039093FC03A09369
:101EF000FD03B093FE03BF91AF919F918F913F91EE
:101F00002F910F900FBE0F901F90189526E8230F6A
:101F10000296A11DB11DD2CF1F920F920FB60F9244
:101F200011242F933F934F935F936F937F938F93DE
:101F30009F93AF93BF93EF93FF938FEF93E00E9434
:101F40008A05FF91EF91BF91AF919F918F917F9102
:101F50006F915F914F913F912F910F900FBE0F9016
:101F60001F9018951F920F920FB60F9211242F9366
:101F70008F939F93EF93FF93E0910F04F0911004E0
:101F80008081E0911504F091160482FD1BC09081C0
:101F9000809118048F5F8F7320911904821741F08C
:101FA000E0911804F0E0E150FC4F958F8093180405
:101FB000FF91EF919F918F912F910F900FBE0F90F6
:101FC0001F9018958081F4CF1F920F920FB60F9239
:101FD00011242F933F934F935F936F937F938F932E
:101FE0009F93AF93BF93EF93FF938091B900887F46
:101FF000803609F44AC0F0F5883209F4A5C018F516
:10200000803109F499C0B8F4882309F4F5C0883008
:1020100009F492C0FF91EF91BF91AF919F918F9181
:102020007F916F915F914F913F912F910F900FBED4
:102030000F901F901895883109F486C0803251F7AF
:102040008093AE0314C0803409F49BC040F4803305
:10205000B9F38833F9F68093AE0385ECAEC08035D2
:1020600009F483C0883509F494C0883499F60E9435
:10207000CD0ED0CF883909F48AC038F5883729F0D9
:1020800050F4883611F0803729F683E08093AF034F
:102090001092AD0355C0883809F479C0803919F021
:1020A000803809F0B7CF8091AD03803208F06FC05F
:1020B000E091AD0381E08E0F8093AD038091BB0072
:1020C000F0E0E357FC4F80833BC0803B39F0D0F415
:1020D000803A09F477C0883A09F09CCF84E0809375
:1020E000AF0310928C0310928B03F0E0E0E00995AF
:1020F00080918B0381110FC081E080938B0310923C
:102100006B0309C0803C09F4A8CF883C09F4A5CF33
:10211000883B09F07FCFE0918C0381E08E0F8093A4
:102120008C03F0E0E559FC4F80818093BB009091D7
:102130008C0380918B0329C08091D4038093BB00D2
:1021400085EC8093BC0066CF9091D3038091D2033D
:10215000981758F5E091D30381E08E0F8093D30355
:10216000F0E0EE54FC4F8081E9CFE091D30381E0B1
:102170008E0F8093D3038091BB00F0E0EE54FC4FB0
:1021800080839091D3038091D2039817C8F285E899
:10219000D8CFE091D30381E08E0F8093D303809159
:1021A000BB00F0E0EE54FC4F80838091B1038111BD
:1021B0005ECF81E08093B00384EA8093BC001092EC
:1021C000AF0328CF85EC8093BC001092AF038091C1
:1021D000AD03803230F4E091AD03F0E0E357FC4F03
:1021E00010826091AD0370E08DE893E0F0E0E0E0F4
:1021F00009951092AD030ECF1092AE0338CFCF9356
:10220000DF93EFEFF3E01382128288EE93E0A0E019
:10221000B0E084839583A683B78382E093E09183C3
:10222000808385EC90E09587848784EC90E09787A5
:10223000868780EC90E0918B808B81EC90E0938B93
:10224000828B82EC90E0958B848B86EC90E0978B70
:10225000868B118E128E138E148ECCE9D4E01B82E5
:102260001A8224E530E03D832C8380E390E09F8355
:102270008E83398728879B878A871E8A1D861C86BE
:102280001F861E8681E08D8B8C8B2FEF3FEF3B8B63
:102290002A8B398B288B8F8B188E1A8E198E84E19E
:1022A00093E0998388838CE190E00E94D818DC0148
:1022B00011961C921E9213961C921E92129784E005
:1022C0001B968C931B9787E01C968C931C978FEF23
:1022D0001E968C931E9786E01D968C931D97E2EBBD
:1022E000F5E0E491F0E0EE0FFF1FEC55FA4F859119
:1022F000949156969C938E935597E4E9F5E0E4917A
:102300005A96EC935A97E4EBF5E0E491F0E0EE0F87
:10231000FF1FEC55FA4F8591949150969C938E93A4
:102320001F97E6E9F5E0E4915796EC935797E5EBB4
:10233000F5E0E491F0E0EE0FFF1FEC55FA4F8591C8
:10234000949152969C938E935197E7E9F5E0E4912E
:102350005996EC93599740E059E06DE370E014967C
:102360004D935D936D937C93179781E090E0199660
:102370009C938E9318971A961C921A975B961C92B0
:102380005B97BC8FAB8F85E08E8F83E08D8FDF9165
:10239000CF910895CF93DF93CDB7DEB728970FB6CF
:1023A000F894DEBF0FBECDBF789484B5826084BD43
:1023B00084B5816084BD85B5826085BD85B5816049
:1023C00085BD80916E00816080936E0010928100C7
:1023D0008091810082608093810080918100816082
:1023E0008093810080918000816080938000809143
:1023F000B10084608093B1008091B00081608093CF
:10240000B00080917A00846080937A0080917A0095
:10241000826080937A0080917A00816080937A0054
:1024200080917A00806880937A001092C100E091D8
:102430000F04F091100482E08083E0910B04F0918E
:102440000C041082E0910D04F0910E048FEC808357
:1024500010921704E0911304F091140486E0808335
:10246000E0911104F0911204808180618083E091F9
:102470001104F0911204808188608083E09111043E
:10248000F0911204808180688083E0911104F091C2
:10249000120480818F7D80832091B7043091B8042D
:1024A0003A832983D9011B968C918F3F49F061E0D3
:1024B0000E946D0361E0E981FA8183850E943F03F8
:1024C000A981BA818D919C91892B09F4FFC11FB715
:1024D000F8948091D503811127C0E8EBF5E0849151
:1024E000EAE9F5E09491E82FF0E0EE0FFF1FE859DC
:1024F000FA4FA591B491EC91E92321F461E08AE0CF
:102500000E943F0361E08AE00E946D038CB5806108
:102510008CBD8CB580648CBD61E08DE00E946D0344
:1025200061E08BE00E946D038091D5038F5F809303
:10253000D5031FBF81E0E981FA81838F61E080913B
:10254000BA040E946D038091B90487FD03C061E065
:102550000E946D0384E08093BC0488E28093BB04F6
:102560001092BD041092BE040E94330C1092BF045E
:102570008091C004833508F483E58093C0041092F1
:10258000C1048091C2048F3208F48FE28093C204A8
:102590000E94710C8CE30E941C0C0E945B0D109237
:1025A000A9041092A8041092AB041092AA040AE0A5
:1025B00010E093E2292E312C8EE00E949E038FE0E2
:1025C0000E949E0380E10E949E0381E10E949E037F
:1025D0000E945B0DEAE7F5E08491E8E9F5E0F4910B
:1025E000F983E6EBF5E0F491FD83FF2309F49FC145
:1025F00081110E9416032D81E22FF0E0EE0FFF1FE4
:10260000EA57FA4FA591B4918C913981382309F496
:102610008EC146E450E05093A9044093A804309240
:10262000AB042092AA0468E473E08CE994E00E9471
:10263000DD0D8EE00E949E03BC016E5F7140072E8F
:10264000000C880B990B0E94061722E339EC48E432
:102650005DEB0E94BB176093F2037093F3038093CA
:10266000F4039093F5038FE00E949E03BC016E5F1C
:102670007140072E000C880B990B0E94061722E36D
:1026800039EC48E45DEB0E94BB176093EE03709356
:10269000EF038093F0039093F10380E10E949E0387
:1026A000BC016E5F7140072E000C880B990B0E94D5
:1026B000061722E339EC48E45DEB0E94BB176093F8
:1026C000EA037093EB038093EC039093ED0381E1B5
:1026D0000E949E03BC016E5F7140072E000C880BA8
:1026E000990B0E94061722E339EC48E45DEB0E9447
:1026F000BB176093E6037093E7038093E80390931E
:10270000E9031093A9040093A80445E050E0509316
:10271000AB044093AA046EE473E08CE994E00E9459
:10272000DD0D4091F2035091F3036091F403709139
:10273000F50322E08CE994E00E94DF0D1093A904D8
:102740000093A8048FE090E09093AB048093AA04D8
:1027500062E573E08CE994E00E94DD0D4091EE03A8
:102760005091EF036091F0037091F10322E08CE946
:1027700094E00E94DF0D1093A9040093A804A9E13E
:10278000B0E0B093AB04A093AA0466E573E08CE9D3
:1027900094E00E94DD0D4091EA035091EB036091BB
:1027A000EC037091ED0322E08CE994E00E94DF0DD0
:1027B0001093A9040093A8043092AB042092AA04B9
:1027C0006AE573E08CE994E00E94DD0D4091E60338
:1027D0005091E7036091E8037091E90322E08CE9EE
:1027E00094E00E94DF0D0E94710C6BE473E08FEFA8
:1027F00093E00E94DD0D6EE573E08FEF93E00E94A1
:10280000DD0D4091F2035091F3036091F403709158
:10281000F50322E08FEF93E00E94DF0D6EE573E099
:102820008FEF93E00E94DD0D4091EE035091EF0396
:102830006091F0037091F10322E08FEF93E00E942A
:10284000DF0D6EE573E08FEF93E00E94DD0D4091A8
:10285000EA035091EB036091EC037091ED0322E0E9
:102860008FEF93E00E94DF0D6EE573E08FEF93E052
:102870000E94DD0D4091E6035091E7036091E8036B
:102880007091E90322E08FEF93E00E94DF0D6EE587
:1028900073E08FEF93E00E94DD0D60E573E08FEF52
:1028A00093E00E94820D60E673E08FEF93E00E9458
:1028B000820DE0E0F0E0EF2B09F47ECE0E94760579
:1028C000882309F479CE0E94000076CE61E0E98188
:1028D000FA8184850E946D03A981BA811A968C9130
:1028E0001A978B7FF9F460E01C968C910E943F034D
:1028F000A981BA811D968C918F3F49F061E00E94B9
:102900006D0361E0E981FA8185850E943F03A98119
:10291000BA811E968C918F3F09F40CCE60E00E9424
:102920006D0308CE61E0E981FA818485DFCF86E41A
:1029300090E09093A9048093A8043092AB04209275
:10294000AA046BE473E08CE994E00E94DD0D109220
:10295000E2031092E3031092E4031092E503109255
:10296000DE031092DF031092E0031092E103109255
:10297000DA031092DB031092DC031092DD03109255
:10298000D6031092D7031092D8031092D903A0E473
:10299000B6E0BA83A9838EE00E949E03BC016E5FFD
:1029A0007140072E000C880B990B0E94061722E33A
:1029B00039EC48E45DEB0E94BB179B01AC010E941F
:1029C000BB172091E2033091E3034091E40350915F
:1029D000E5030E94F2154B015C018092E2039092A4
:1029E000E303A092E403B092E5038FE00E949E030C
:1029F000BC016E5F7140072E000C880B990B0E9482
:102A0000061722E339EC48E45DEB0E94BB179B01FB
:102A1000AC010E94BB172091DE033091DF0340918F
:102A2000E0035091E1030E94F2156D837E838F8352
:102A300098876093DE037093DF038093E0039093A5
:102A4000E10380E10E949E03BC016E5F7140072E8E
:102A5000000C880B990B0E94061722E339EC48E41E
:102A60005DEB0E94BB179B01AC010E94BB1720913C
:102A7000DA033091DB034091DC035091DD030E94C7
:102A8000F2156B017C01C092DA03D092DB03E09275
:102A9000DC03F092DD0381E10E949E03BC016E5FC6
:102AA0007140072E000C880B990B0E94061722E339
:102AB00039EC48E45DEB0E94BB179B01AC010E941E
:102AC000BB172091D6033091D7034091D803509182
:102AD000D9030E94F2152B013C014092D60350927B
:102AE000D7036092D8037092D90360E070E0CB0105
:102AF0000E94E604E981FA813197FA83E983EF2B9A
:102B000009F049CF20E030E048EC54E4C501B401BD
:102B10000E9463160E942E1869837A838B839C839C
:102B20006093E2037093E3038093E4039093E503DF
:102B300020E030E048EC54E46D817E818F819885FF
:102B40000E9463160E942E184B015C018092DE03E6
:102B50009092DF03A092E003B092E10320E030E026
:102B600048EC54E4C701B6010E9463160E942E1877
:102B70006B017C01C092DA03D092DB03E092DC03AC
:102B8000F092DD0320E030E048EC54E4C301B201F0
:102B90000E9463160E942E186093D6037093D70389
:102BA0008093D8039093D90329813A814B815C812A
:102BB0002093F2033093F3034093F4035093F5030F
:102BC0008092EE039092EF03A092F003B092F10393
:102BD000C092EA03D092EB03E092EC03F092ED0393
:102BE00088CD5058BB27AA270E9409160C947C1741
:102BF0000E946E1738F00E94751720F039F49F3F3D
:102C000019F426F40C946B170EF4E095E7FB0C9482
:102C10006517E92F0E948D1758F3BA1762077307DB
:102C20008407950720F079F4A6F50C94AF170EF4FD
:102C3000E0950B2EBA2FA02D0B01B90190010C01CC
:102C4000CA01A0011124FF27591B99F0593F50F4E4
:102C5000503E68F11A16F040A22F232F342F44273C
:102C6000585FF3CF469537952795A795F040539534
:102C7000C9F77EF41F16BA0B620B730B840BBAF004
:102C80009150A1F0FF0FBB1F661F771F881FC2F76F
:102C90000EC0BA0F621F731F841F48F48795779583
:102CA0006795B795F7959E3F08F0B0CF9395880F3D
:102CB00008F09927EE0F9795879508950E94411780
:102CC00008F481E008950E9477160C947C170E9406
:102CD000751758F00E946E1740F029F45F3F29F0F5
:102CE0000C94651751110C94B0170C946B170E943B
:102CF0008D1768F39923B1F3552391F3951B550B69
:102D0000BB27AA2762177307840738F09F5F5F4FBE
:102D1000220F331F441FAA1FA9F335D00E2E3AF0FD
:102D2000E0E832D091505040E695001CCAF72BD015
:102D3000FE2F29D0660F771F881FBB1F2617370766
:102D40004807AB07B0E809F0BB0B802DBF01FF2798
:102D500093585F4F3AF09E3F510578F00C946517F9
:102D60000C94B0175F3FE4F3983ED4F386957795C3
:102D70006795B795F7959F5FC9F7880F911D969551
:102D8000879597F90895E1E0660F771F881FBB1FAD
:102D9000621773078407BA0720F0621B730B840B5A
:102DA000BA0BEE1F88F7E09508950E94951788F0FA
:102DB0009F5798F0B92F9927B751B0F0E1F0660FFF
:102DC000771F881F991F1AF0BA95C9F714C0B13040
:102DD00091F00E94AF17B1E008950C94AF17672FE0
:102DE000782F8827B85F39F0B93FCCF3869577956F
:102DF0006795B395D9F73EF4909580957095619558
:102E00007F4F8F4F9F4F0895E89409C097FB3EF482
:102E100090958095709561957F4F8F4F9F4F992327
:102E2000A9F0F92F96E9BB279395F69587957795A5
:102E30006795B795F111F8CFFAF4BB0F11F460FF65
:102E40001BC06F5F7F4F8F4F9F4F16C0882311F0BD
:102E500096E911C0772321F09EE8872F762F05C0D1
:102E6000662371F096E8862F70E060E02AF09A956C
:102E7000660F771F881FDAF7880F9695879597F961
:102E80000895990F0008550FAA0BE0E8FEEF1616FB
:102E90001706E807F907C0F012161306E407F5074E
:102EA00098F0621B730B840B950B39F40A2661F0C2
:102EB000232B242B252B21F408950A2609F4A14065
:102EC000A6958FEF811D811D089597F99F6780E872
:102ED00070E060E008959FEF80EC089500240A946C
:102EE0001616170618060906089500240A941216E5
:102EF0001306140605060895092E0394000C11F418
:102F0000882352F0BB0F40F4BF2B11F460FF04C0C4
:102F10006F5F7F4F8F4F9F4F089557FD9058440F1D
:102F2000551F59F05F3F71F04795880F97FB991F28
:102F300061F09F3F79F087950895121613061406E5
:102F4000551FF2CF4695F1DF08C016161706180672
:102F5000991FF1CF86957105610508940895E8944D
:102F6000BB2766277727CB0197F908950E94411761
:102F700008F48FEF08950E94CE170C947C170E94DE
:102F80006E1738F00E94751720F0952311F00C94FD
:102F900065170C946B1711240C94B0170E948D17B1
:102FA00070F3959FC1F3950F50E0551F629FF0019C
:102FB000729FBB27F00DB11D639FAA27F00DB11DB5
:102FC000AA1F649F6627B00DA11D661F829F22273E
:102FD000B00DA11D621F739FB00DA11D621F839FC5
:102FE000A00D611D221F749F3327A00D611D231F9B
:102FF000849F600D211D822F762F6A2F11249F57E9
:1030000050409AF0F1F088234AF0EE0FFF1FBB1FEB
:10301000661F771F881F91505040A9F79E3F5105AA
:1030200080F00C9465170C94B0175F3FE4F3983E62
:10303000D4F3869577956795B795F795E7959F5F54
:10304000C1F7FE2B880F911D9695879597F90895E6
:1030500019F416F40C946B170C9473180E949517BE
:10306000B8F39923C9F3B6F39F57550B87FF0E9416
:1030700081180024A0E640EA900180585695979563
:1030800028F4805C660F771F881F20F0261737070B
:10309000480730F4621B730B840B202931294A2B1B
:1030A000A69517940794202531254A2758F7660FCF
:1030B000771F881F20F026173707480730F4620B68
:1030C000730B840B200D311D411DA09581F7B901B3
:1030D000842F9158880F9695879508950E944117DF
:1030E000880B990B08959F3F31F0915020F48795FC
:1030F00077956795B795880F911D9695879597F960
:10310000089591505040660F771F881FD2F7089599
:1031100097FB072E16F4009407D077FD09D00E9484
:10312000BE1807FC05D03EF4909581959F4F0895F9
:10313000709561957F4F0895A1E21A2EAA1BBB1BC3
:10314000FD010DC0AA1FBB1FEE1FFF1FA217B30773
:10315000E407F50720F0A21BB30BE40BF50B661F89
:10316000771F881F991F1A9469F76095709580954D
:1031700090959B01AC01BD01CF010895AA1BBB1B1B
:1031800051E107C0AA1FBB1FA617B70710F0A61B67
:10319000B70B881F991F5A95A9F780959095BC0188
:1031A000CD010895EE0FFF1F0590F491E02D0994D5
:1031B0000F931F93CF93DF938230910510F482E039
:1031C00090E0E091C504F091C60430E020E0B0E06A
:1031D000A0E0309799F42115310509F44AC0281B65
:1031E000390B24303105D8F58A819B816115710531
:1031F00089F1FB0193838283FE0111C040815181DB
:103200000281138148175907E0F04817590799F4CC
:10321000109761F012960C93129713961C933296A6
:10322000CF01DF91CF911F910F9108950093C504B5
:103230001093C604F4CF2115310551F042175307FE
:1032400038F0A901DB019A01BD01DF01F801C1CF0E
:10325000EF01F9CF9093C6048093C504CDCFFE0152
:10326000E20FF31F81939193225031093983288310
:10327000D7CF2091C3043091C404232B41F4209173
:10328000FA023091FB023093C4042093C3042091CE
:10329000F8023091F9022115310541F42DB73EB7FE
:1032A0004091FC025091FD02241B350BE091C304B8
:1032B000F091C404E217F307A0F42E1B3F0B28176C
:1032C000390778F0AC014E5F5F4F2417350748F09F
:1032D0004E0F5F1F5093C4044093C3048193919396
:1032E0009FCFF0E0E0E09CCFCF93DF930097E9F031
:1032F000FC01329713821282A091C504B091C604DA
:10330000ED0130E020E01097A1F420813181820F9F
:10331000931F2091C3043091C4042817390709F082
:1033200061C0F093C404E093C304DF91CF9108958A
:10333000EA01CE17DF07E8F54A815B819E0141155E
:103340005105B1F7E901FB83EA8349915991C40F13
:10335000D51FEC17FD0761F4808191810296840FDF
:10336000951FE90199838883828193819B838A8356
:10337000F0E0E0E012968D919C9113970097B9F5DB
:103380002D913C911197CD010296820F931F2091B0
:10339000C3043091C4042817390739F6309751F522
:1033A0001092C6041092C504B093C404A093C30441
:1033B000BCCFD383C28340815181840F951FC8172E
:1033C000D90761F44E5F5F4F88819981480F591F7B
:1033D000518340838A819B819383828321153105A8
:1033E00009F0B0CFF093C604E093C5049ECFFD0171
:1033F000DC01C0CF13821282D7CF81E090E0F89435
:083400000C94021AF894FFCFAE
:1034080000000000000000000000000000000000B4
:1034180000000000000000000000000000000000A4
:10342800000000000000C0E0F0F8FCFCFEFFFCE03B
:103438000000000000000000000000000000000084
:103448000000000000000000000000000000000074
:103458000000000000000000000000000000000064
:103468000000000000F8F8F8F8F8F8F8F8F8F8F8AC
:10347800F8F0F0E0E0C080C0FCFFFFFFFF7F3F7F77
:10348800FFFFFFFFFF000000000000000000000039
:103498000000000000000000000000000000000024
:1034A8000000000000000000000000000000000014
:1034B800000000000000000000000F1F3F7FFFFF1A
:1034C800FFFFFFFFFFFFE7C7C7878F9F9FFFFFFF34
:1034D800C1C0E0FCFFFFFFFFFFFCFCFCFCFEFEFEA2
:1034E800FCFCF8F8F0E0C0C000000000000000009C
:1034F80000000000000000000000000000000000C4
:1035080000000000000000000000000000000000B3
:103518000080C0E0F1FBFFFFFFFFFF7F1F0F0F8759
:10352800E7FFFFFF1F1F3FF9F8F8F8F8F8F8FDFF6D
:10353800FFFFFFFFFFFFFFFF7F3F0F0701000000B6
:103548000000000000000000000000000000000073
:103558000000000000000000000000000000000063
:10356800000000F0FEFFFFFFFFFFFFFFFFFFFFFE71
:103578007E3F3F0F1FFFFFFFFCF0E0F1FFFFFFFF63
:10358800FFFCF00101010101010101000000000040
:103598000000000000000000000000000000000023
:1035A8000000000000000000000000000000000013
:1035B80000000000000000030303030303030301EA
:1035C80001010100000000000000030F1F3F7F7F82
:1035D800FFFFFFFF7F7F1F030000000000000000C7
:1035E80000000000000000000000000000000000D3
:1035F80000000000000000000000C7048000000078
:103608000000AC050C053905F9056A0548055C0597
:1036180000000000A5080C05580D570DE70C4006E2
:103628004A0B220B3E0B320B510B40066B06D60C95
:10363800E90AB00A6B0A4E0AD60977096E616E006C
:10364800696E66006F766600444300414300563158
:103658003A0056323A0056333A0056343A003B00A4
:043668000D0A000047
:00000001FF
