:100000000C945D000C9485000C9485000C94850084
:100010000C9485000C9485000C9485000C9485004C
:100020000C9485000C9485000C9485000C9485003C
:100030000C9485000C9485000C9485000C9485002C
:100040000C9452020C9485000C94C2020C949C02F5
:100050000C9485000C9485000C9485000C9485000C
:100060000C9485000C9485000000000024002700FB
:100070002A0000000000250028002B0004040404CE
:100080000404040402020202020203030303030342
:10009000010204081020408001020408102001021F
:1000A00004081020000000080002010000030407FB
:1000B00000000000000000001F0511241FBECFEF4C
:1000C000D8E0DEBFCDBF11E0A0E0B1E0E0E8FEE0A7
:1000D00002C005900D92AA33B107D9F721E0AAE337
:1000E000B1E001C01D92AE3EB207E1F710E0CDE5F0
:1000F000D0E004C02197FE010E943807CC35D1071B
:10010000C9F70E94F4020C943E070C940000EEEA3A
:10011000F0E02491EAE9F0E09491E6E8F0E0E4917F
:10012000EE23C9F0222339F0233001F1A8F4213065
:1001300019F1223029F1F0E0EE0FFF1FEE58FF4FCA
:10014000A591B4912FB7F894EC91811126C09095A8
:100150009E239C932FBF08952730A9F02830C9F023
:10016000243049F7209180002F7D03C0209180002A
:100170002F7720938000DFCF24B52F7724BDDBCFEE
:1001800024B52F7DFBCF2091B0002F772093B000B6
:10019000D2CF2091B0002F7DF9CF9E2BDACF3FB781
:1001A000F89480914D0190914E01A0914F01B09132
:1001B000500126B5A89B05C02F3F19F00196A11D3F
:1001C000B11D3FBFBA2FA92F982F8827BC01CD01A1
:1001D000620F711D811D911D42E0660F771F881F00
:1001E000991F4A95D1F70895AF92BF92CF92DF92AF
:1001F000EF92FF920F931F93CF93DF936C017B01DC
:100200008B01040F151FEB015E01AE18BF08C0176C
:10021000D10759F06991D601ED91FC910190F081DF
:10022000E02DC6010995892B79F7C501DF91CF91A2
:100230001F910F91FF90EF90DF90CF90BF90AF9004
:100240000895FC01538D448D252F30E0842F90E0DC
:10025000821B930B541710F0CF96089501970895C1
:10026000FC01918D828D981761F0A28DAE0FBF2F8A
:10027000B11D5D968C91928D9F5F9F73928F90E0E0
:1002800008958FEF9FEF0895FC01918D828D98174F
:1002900031F0828DE80FF11D858D90E008958FEF8C
:1002A0009FEF0895FC01918D228D892F90E0805C55
:1002B0009F4F821B91098F739927089581E591E0E3
:1002C0000E94520121E0892B09F420E0822F089539
:1002D00080E090E0892B29F00E945E0181110C944E
:1002E00000000895FC01A48DA80FB92FB11DA35AD9
:1002F000BF4F2C91848D90E001968F739927848F46
:10030000A689B7892C93A089B1898C918370806468
:100310008C93938D848D981306C00288F389E02D09
:1003200080818F7D80830895EF92FF920F931F93BA
:10033000CF93DF93EC0181E0888F9B8D8C8D981398
:100340001AC0E889F989808185FF15C09FB7F894A4
:10035000EE89FF896083E889F989808183708064F0
:1003600080839FBF81E090E0DF91CF911F910F913B
:10037000FF90EF900895F62E0B8D10E00F5F1F4F4A
:100380000F731127E02E8C8D8E110CC00FB607FC59
:10039000FACFE889F989808185FFF5CFCE010E94E7
:1003A0007201F1CFEB8DEC0FFD2FF11DE35AFF4FE2
:1003B000F0829FB7F8940B8FEA89FB898081806275
:1003C000CFCFCF93DF93EC01888D8823B9F0AA8932
:1003D000BB89E889F9898C9185FD03C0808186FD00
:1003E0000DC00FB607FCF7CF8C9185FFF2CF80814F
:1003F00085FFEDCFCE010E947201E9CFDF91CF9151
:100400000895FC0101900020E9F73197AF01481BE6
:10041000590BBC0181E591E00C94F4008F929F92FE
:10042000AF92BF920F931F93CF93DF93CDB7DEB7F9
:10043000A1970FB6F894DEBF0FBECDBF19A2423010
:1004400008F44AE08E010F5D1F4F842E912CB12CD1
:10045000A12CA50194010E941607E62FB901CA013B
:10046000EA30F4F4E05DD801EE938D01232B242BC8
:10047000252B79F790E080E0109719F0CD010E94CC
:100480000102A1960FB6F894DEBF0FBECDBFDF917B
:10049000CF911F910F91BF90AF909F908F90089533
:1004A000E95CE1CF1F920F920FB60F9211242F93A8
:1004B0003F938F939F93AF93BF9380914901909106
:1004C0004A01A0914B01B0914C013091480123E0C9
:1004D000230F2D3758F50196A11DB11D209348011A
:1004E0008093490190934A01A0934B01B0934C0132
:1004F00080914D0190914E01A0914F01B09150011A
:100500000196A11DB11D80934D0190934E01A093C2
:100510004F01B0935001BF91AF919F918F913F9147
:100520002F910F900FBE0F901F90189526E8230F64
:100530000296A11DB11DD2CF1F920F920FB60F923E
:1005400011242F933F934F935F936F937F938F93D8
:100550009F93AF93BF93EF93FF9381E591E00E9448
:100560007201FF91EF91BF91AF919F918F917F9118
:100570006F915F914F913F912F910F900FBE0F9010
:100580001F9018951F920F920FB60F9211242F9360
:100590008F939F93EF93FF93E0916101F09162013C
:1005A0008081E0916701F091680182FD1BC090811C
:1005B00080916A018F5F8F7320916B01821741F0E8
:1005C000E0916A01F0E0EF5AFE4F958F80936A0147
:1005D000FF91EF919F918F912F910F900FBE0F90F0
:1005E0001F9018958081F4CF789484B5826084BD83
:1005F00084B5816084BD85B5826085BD85B5816027
:1006000085BD80916E00816080936E0010928100A4
:10061000809181008260809381008091810081605F
:100620008093810080918000816080938000809120
:10063000B10084608093B1008091B00081608093AC
:10064000B00080917A00846080937A0080917A0073
:10065000826080937A0080917A00816080937A0032
:1006600080917A00806880937A001092C100E091B6
:100670006101F091620182E08083E0915D01F0917F
:100680005E011082E0915F01F09160018FEC808348
:1006900010926901E0916501F091660186E0808326
:1006A000E0916301F0916401808180618083E09139
:1006B0006301F0916401808188608083E09163012F
:1006C000F0916401808180688083E0916301F09102
:1006D000640180818F7D8083EAE9F0E02491E6E87F
:1006E000F0E08491882399F090E0880F991FFC0135
:1006F000E859FF4FA591B491FC01EE58FF4F859149
:1007000094918FB7F894EC91E22BEC938FBFE9E9C9
:10071000F0E02491E5E8F0E084918823C1F090E0D6
:10072000880F991FFC01E859FF4FC591D491FC0136
:10073000EE58FF4FA591B4919FB7F8948881E22FAE
:10074000E0958E2388838C91E823EC939FBFC3E0D0
:10075000D0E003E210E090E0A92E90E0B92E80E016
:100760000E948700CE010197F1F781E00E94870087
:10077000C8010197F1F780E00E94870010924401C0
:1007800010924501109246011092470110924301C8
:100790001092420180914201909143010197909300
:1007A000430180934201892B61F0199BF3CF0E9492
:1007B000CF0060933E0170933F018093400190937E
:1007C000410180914201909143010197909343012F
:1007D00080934201892BD1F01999F3CF0E94CF0069
:1007E000C0903E01D0903F01E0904001F090410167
:1007F0006C197D098E099F090E94ED0560934401E3
:1008000070934501809346019093470120E030E0CA
:1008100040E05FE3609144017091450180914601A1
:10082000909147010E94A40624E037EE4CE05DE37E
:100830000E94A40660933A0170933B0180933C01AF
:1008400090933D0182E191E00E940102C0903A0143
:10085000D0903B01E0903C01F0903D0120E030E081
:1008600048EC53E4C701B6010E949F061816ECF548
:100870008DE191E00E94010283E391E00E94010278
:1008800087E391E00E9401020E94CF006B017C018E
:1008900088EE482E83E0582E612C712C0E94CF00E8
:1008A0006C197D098E099F09683E73408105910589
:1008B000A8F321E0421A51086108710888EEC80EB9
:1008C00083E0D81EE11CF11C411451046104710441
:1008D00029F7A114B10409F442CF0E945E018823D4
:1008E00009F43DCF0E9400003ACF20E030E040E024
:1008F00050E4C701B6010E94B90587FF03C083E237
:1009000091E0B8CFA7019601C701B6010E94110777
:10091000882319F087E291E0ADCF26013701E894F2
:1009200077F82FEF3FEF4FE75FE7C301B2010E9477
:10093000110781110DC02FEF3FEF4FE75FE7C301B4
:10094000B2010E94B90518161CF48BE291E092CF17
:100950002FEF3FEF4FE75FE4C701B6010E949F060C
:1009600018161CF48FE291E085CF2FEF3FEF4FE791
:100970005FECC701B6010E94B90587FDF3CF20E007
:1009800030E0A901C701B6010E94B90587FF09C07F
:100990006DE281E591E00E949401F7FAF094F7F896
:1009A000F0942AE037ED43EA5BE3C701B6010E9409
:1009B0004D052B013C010E94BE056B017C010E948C
:1009C000ED059B01AC01C301B2010E944C052B0156
:1009D0003C014AE0C701B6010E940E026EE281E5C9
:1009E00091E00E94940120E030E040E251E4C30134
:1009F000B2010E94A4062B013C010E94BE056B01BE
:100A0000F12CE12C4AE0C701B6010E940E02C70199
:100A1000B6010E94ED059B01AC01C301B2010E9429
:100A20004C0520E030E040E251E40E94A4060E9420
:100A3000BE0590E080E04AE00E940E021DCFE1E595
:100A4000F1E01382128288EE93E0A0E0B0E08483AC
:100A50009583A683B78384E091E09183808385ECBE
:100A600090E09587848784EC90E09787868780EC78
:100A700090E0918B808B81EC90E0938B828B82EC69
:100A800090E0958B848B86EC90E0978B868B118E13
:100A9000128E138E148E08955058BB27AA270E94D9
:100AA00064050C9465060E94570638F00E945E06A5
:100AB00020F039F49F3F19F426F40C9454060EF4F8
:100AC000E095E7FB0C944E06E92F0E94760658F35A
:100AD000BA17620773078407950720F079F4A6F523
:100AE0000C9498060EF4E0950B2EBA2FA02D0B0156
:100AF000B90190010C01CA01A0011124FF27591B63
:100B000099F0593F50F4503E68F11A16F040A22F68
:100B1000232F342F4427585FF3CF469537952795D9
:100B2000A795F0405395C9F77EF41F16BA0B620BD8
:100B3000730B840BBAF09150A1F0FF0FBB1F661F1F
:100B4000771F881FC2F70EC0BA0F621F731F841F62
:100B500048F4879577956795B795F7959E3F08F088
:100B6000B0CF9395880F08F09927EE0F979587954A
:100B700008950E942A0608F481E008950E947E06E6
:100B800088F09F5798F0B92F9927B751B0F0E1F04E
:100B9000660F771F881F991F1AF0BA95C9F714C0FE
:100BA000B13091F00E949806B1E008950C94980637
:100BB000672F782F8827B85F39F0B93FCCF3869537
:100BC00077956795B395D9F73EF490958095709594
:100BD00061957F4F8F4F9F4F0895E89409C097FB11
:100BE0003EF490958095709561957F4F8F4F9F4F04
:100BF0009923A9F0F92F96E9BB279395F695879548
:100C000077956795B795F111F8CFFAF4BB0F11F40A
:100C100060FF1BC06F5F7F4F8F4F9F4F16C08823B1
:100C200011F096E911C0772321F09EE8872F762FE7
:100C300005C0662371F096E8862F70E060E02AF028
:100C40009A95660F771F881FDAF7880F9695879514
:100C500097F90895990F0008550FAA0BE0E8FEEFE9
:100C600016161706E807F907C0F012161306E40770
:100C7000F50798F0621B730B840B950B39F40A2669
:100C800061F0232B242B252B21F408950A2609F447
:100C9000A140A6958FEF811D811D089597F99F674B
:100CA00080E870E060E008959FEF80EC08950024F4
:100CB0000A941616170618060906089500240A94C1
:100CC00012161306140605060895092E0394000C47
:100CD00011F4882352F0BB0F40F4BF2B11F460FFD6
:100CE00004C06F5F7F4F8F4F9F4F089557FD9058FF
:100CF000440F551F59F05F3F71F04795880F97FBE0
:100D0000991F61F09F3F79F0879508951216130699
:100D10001406551FF2CF4695F1DF08C016161706C8
:100D20001806991FF1CF86957105610508940895FD
:100D3000E894BB2766277727CB0197F908950E948F
:100D40002A0608F48FEF08950E94B7060C946506F2
:100D50000E94570638F00E945E0620F0952311F09D
:100D60000C944E060C94540611240C9499060E947F
:100D7000760670F3959FC1F3950F50E0551F629F63
:100D8000F001729FBB27F00DB11D639FAA27F00DE4
:100D9000B11DAA1F649F6627B00DA11D661F829F0B
:100DA0002227B00DA11D621F739FB00DA11D621FF0
:100DB000839FA00D611D221F749F3327A00D611D0D
:100DC000231F849F600D211D822F762F6A2F1124EF
:100DD0009F5750409AF0F1F088234AF0EE0FFF1F22
:100DE000BB1F661F771F881F91505040A9F79E3F79
:100DF000510580F00C944E060C9499065F3FE4F385
:100E0000983ED4F3869577956795B795F795E795CE
:100E10009F5FC1F7FE2B880F911D9695879597F9D7
:100E200008950E942A06880B990B0895A1E21A2EB4
:100E3000AA1BBB1BFD010DC0AA1FBB1FEE1FFF1F7E
:100E4000A217B307E407F50720F0A21BB30BE40BCE
:100E5000F50B661F771F881F991F1A9469F7609515
:100E60007095809590959B01AC01BD01CF010895CF
:100E7000EE0FFF1F0590F491E02D0994F894FFCF39
:100E8000000000009401F4002101E1015201300151
:100E9000440144697374616E63653A20003E2034F6
:100EA0003030003C2032006E616E00696E66006F6B
:0A0EB00076660020636D000D0A0055
:00000001FF
